{
  "_format": "hh-sol-artifact-1",
  "contractName": "AssetToken",
  "sourceName": "contracts/AssetToken.sol",
  "abi": [
    {
      "inputs": [],
      "stateMutability": "nonpayable",
      "type": "constructor"
    },
    {
      "anonymous": false,
      "inputs": [
        {
          "indexed": true,
          "internalType": "address",
          "name": "owner",
          "type": "address"
        },
        {
          "indexed": true,
          "internalType": "address",
          "name": "spender",
          "type": "address"
        },
        {
          "indexed": false,
          "internalType": "uint256",
          "name": "value",
          "type": "uint256"
        }
      ],
      "name": "Approval",
      "type": "event"
    },
    {
      "anonymous": false,
      "inputs": [
        {
          "indexed": true,
          "internalType": "uint256",
          "name": "assetId",
          "type": "uint256"
        },
        {
          "indexed": false,
          "internalType": "string",
          "name": "name",
          "type": "string"
        },
        {
          "indexed": false,
          "internalType": "string",
          "name": "assetType",
          "type": "string"
        },
        {
          "indexed": false,
          "internalType": "uint256",
          "name": "totalValue",
          "type": "uint256"
        },
        {
          "indexed": false,
          "internalType": "uint256",
          "name": "totalSupply",
          "type": "uint256"
        },
        {
          "indexed": false,
          "internalType": "uint256",
          "name": "tokenPrice",
          "type": "uint256"
        }
      ],
      "name": "AssetCreated",
      "type": "event"
    },
    {
      "anonymous": false,
      "inputs": [
        {
          "indexed": true,
          "internalType": "address",
          "name": "previousOwner",
          "type": "address"
        },
        {
          "indexed": true,
          "internalType": "address",
          "name": "newOwner",
          "type": "address"
        }
      ],
      "name": "OwnershipTransferred",
      "type": "event"
    },
    {
      "anonymous": false,
      "inputs": [
        {
          "indexed": true,
          "internalType": "uint256",
          "name": "assetId",
          "type": "uint256"
        },
        {
          "indexed": false,
          "internalType": "uint256",
          "name": "totalAmount",
          "type": "uint256"
        },
        {
          "indexed": false,
          "internalType": "uint256",
          "name": "totalSupply",
          "type": "uint256"
        }
      ],
      "name": "ProfitDistributed",
      "type": "event"
    },
    {
      "anonymous": false,
      "inputs": [
        {
          "indexed": true,
          "internalType": "uint256",
          "name": "assetId",
          "type": "uint256"
        },
        {
          "indexed": true,
          "internalType": "address",
          "name": "buyer",
          "type": "address"
        },
        {
          "indexed": false,
          "internalType": "uint256",
          "name": "amount",
          "type": "uint256"
        },
        {
          "indexed": false,
          "internalType": "uint256",
          "name": "cost",
          "type": "uint256"
        }
      ],
      "name": "TokensPurchased",
      "type": "event"
    },
    {
      "anonymous": false,
      "inputs": [
        {
          "indexed": true,
          "internalType": "address",
          "name": "from",
          "type": "address"
        },
        {
          "indexed": true,
          "internalType": "address",
          "name": "to",
          "type": "address"
        },
        {
          "indexed": false,
          "internalType": "uint256",
          "name": "value",
          "type": "uint256"
        }
      ],
      "name": "Transfer",
      "type": "event"
    },
    {
      "inputs": [
        {
          "internalType": "address",
          "name": "owner",
          "type": "address"
        },
        {
          "internalType": "address",
          "name": "spender",
          "type": "address"
        }
      ],
      "name": "allowance",
      "outputs": [
        {
          "internalType": "uint256",
          "name": "",
          "type": "uint256"
        }
      ],
      "stateMutability": "view",
      "type": "function"
    },
    {
      "inputs": [
        {
          "internalType": "address",
          "name": "spender",
          "type": "address"
        },
        {
          "internalType": "uint256",
          "name": "amount",
          "type": "uint256"
        }
      ],
      "name": "approve",
      "outputs": [
        {
          "internalType": "bool",
          "name": "",
          "type": "bool"
        }
      ],
      "stateMutability": "nonpayable",
      "type": "function"
    },
    {
      "inputs": [
        {
          "internalType": "uint256",
          "name": "",
          "type": "uint256"
        }
      ],
      "name": "assetIds",
      "outputs": [
        {
          "internalType": "uint256",
          "name": "",
          "type": "uint256"
        }
      ],
      "stateMutability": "view",
      "type": "function"
    },
    {
      "inputs": [
        {
          "internalType": "uint256",
          "name": "",
          "type": "uint256"
        }
      ],
      "name": "assets",
      "outputs": [
        {
          "internalType": "string",
          "name": "name",
          "type": "string"
        },
        {
          "internalType": "string",
          "name": "assetType",
          "type": "string"
        },
        {
          "internalType": "uint256",
          "name": "totalValue",
          "type": "uint256"
        },
        {
          "internalType": "uint256",
          "name": "totalSupply",
          "type": "uint256"
        },
        {
          "internalType": "uint256",
          "name": "tokenPrice",
          "type": "uint256"
        },
        {
          "internalType": "bool",
          "name": "isActive",
          "type": "bool"
        }
      ],
      "stateMutability": "view",
      "type": "function"
    },
    {
      "inputs": [
        {
          "internalType": "address",
          "name": "account",
          "type": "address"
        }
      ],
      "name": "balanceOf",
      "outputs": [
        {
          "internalType": "uint256",
          "name": "",
          "type": "uint256"
        }
      ],
      "stateMutability": "view",
      "type": "function"
    },
    {
      "inputs": [
        {
          "internalType": "uint256",
          "name": "_assetId",
          "type": "uint256"
        },
        {
          "internalType": "uint256",
          "name": "_amount",
          "type": "uint256"
        }
      ],
      "name": "buyTokens",
      "outputs": [],
      "stateMutability": "payable",
      "type": "function"
    },
    {
      "inputs": [
        {
          "internalType": "string",
          "name": "_name",
          "type": "string"
        },
        {
          "internalType": "string",
          "name": "_assetType",
          "type": "string"
        },
        {
          "internalType": "uint256",
          "name": "_totalValue",
          "type": "uint256"
        },
        {
          "internalType": "uint256",
          "name": "_totalSupply",
          "type": "uint256"
        }
      ],
      "name": "createAssetToken",
      "outputs": [],
      "stateMutability": "nonpayable",
      "type": "function"
    },
    {
      "inputs": [],
      "name": "decimals",
      "outputs": [
        {
          "internalType": "uint8",
          "name": "",
          "type": "uint8"
        }
      ],
      "stateMutability": "view",
      "type": "function"
    },
    {
      "inputs": [
        {
          "internalType": "address",
          "name": "spender",
          "type": "address"
        },
        {
          "internalType": "uint256",
          "name": "subtractedValue",
          "type": "uint256"
        }
      ],
      "name": "decreaseAllowance",
      "outputs": [
        {
          "internalType": "bool",
          "name": "",
          "type": "bool"
        }
      ],
      "stateMutability": "nonpayable",
      "type": "function"
    },
    {
      "inputs": [
        {
          "internalType": "uint256",
          "name": "_assetId",
          "type": "uint256"
        }
      ],
      "name": "distributeProfits",
      "outputs": [],
      "stateMutability": "payable",
      "type": "function"
    },
    {
      "inputs": [],
      "name": "getAllAssets",
      "outputs": [
        {
          "components": [
            {
              "internalType": "string",
              "name": "name",
              "type": "string"
            },
            {
              "internalType": "string",
              "name": "assetType",
              "type": "string"
            },
            {
              "internalType": "uint256",
              "name": "totalValue",
              "type": "uint256"
            },
            {
              "internalType": "uint256",
              "name": "totalSupply",
              "type": "uint256"
            },
            {
              "internalType": "uint256",
              "name": "tokenPrice",
              "type": "uint256"
            },
            {
              "internalType": "bool",
              "name": "isActive",
              "type": "bool"
            }
          ],
          "internalType": "struct AssetToken.Asset[]",
          "name": "",
          "type": "tuple[]"
        }
      ],
      "stateMutability": "view",
      "type": "function"
    },
    {
      "inputs": [
        {
          "internalType": "uint256",
          "name": "_assetId",
          "type": "uint256"
        }
      ],
      "name": "getAsset",
      "outputs": [
        {
          "components": [
            {
              "internalType": "string",
              "name": "name",
              "type": "string"
            },
            {
              "internalType": "string",
              "name": "assetType",
              "type": "string"
            },
            {
              "internalType": "uint256",
              "name": "totalValue",
              "type": "uint256"
            },
            {
              "internalType": "uint256",
              "name": "totalSupply",
              "type": "uint256"
            },
            {
              "internalType": "uint256",
              "name": "tokenPrice",
              "type": "uint256"
            },
            {
              "internalType": "bool",
              "name": "isActive",
              "type": "bool"
            }
          ],
          "internalType": "struct AssetToken.Asset",
          "name": "",
          "type": "tuple"
        }
      ],
      "stateMutability": "view",
      "type": "function"
    },
    {
      "inputs": [
        {
          "internalType": "uint256",
          "name": "_assetId",
          "type": "uint256"
        }
      ],
      "name": "getAvailableTokens",
      "outputs": [
        {
          "internalType": "uint256",
          "name": "",
          "type": "uint256"
        }
      ],
      "stateMutability": "view",
      "type": "function"
    },
    {
      "inputs": [
        {
          "internalType": "uint256",
          "name": "_assetId",
          "type": "uint256"
        },
        {
          "internalType": "address",
          "name": "_owner",
          "type": "address"
        }
      ],
      "name": "getOwnership",
      "outputs": [
        {
          "internalType": "uint256",
          "name": "",
          "type": "uint256"
        }
      ],
      "stateMutability": "view",
      "type": "function"
    },
    {
      "inputs": [
        {
          "internalType": "address",
          "name": "spender",
          "type": "address"
        },
        {
          "internalType": "uint256",
          "name": "addedValue",
          "type": "uint256"
        }
      ],
      "name": "increaseAllowance",
      "outputs": [
        {
          "internalType": "bool",
          "name": "",
          "type": "bool"
        }
      ],
      "stateMutability": "nonpayable",
      "type": "function"
    },
    {
      "inputs": [],
      "name": "name",
      "outputs": [
        {
          "internalType": "string",
          "name": "",
          "type": "string"
        }
      ],
      "stateMutability": "view",
      "type": "function"
    },
    {
      "inputs": [],
      "name": "nextAssetId",
      "outputs": [
        {
          "internalType": "uint256",
          "name": "",
          "type": "uint256"
        }
      ],
      "stateMutability": "view",
      "type": "function"
    },
    {
      "inputs": [],
      "name": "owner",
      "outputs": [
        {
          "internalType": "address",
          "name": "",
          "type": "address"
        }
      ],
      "stateMutability": "view",
      "type": "function"
    },
    {
      "inputs": [],
      "name": "renounceOwnership",
      "outputs": [],
      "stateMutability": "nonpayable",
      "type": "function"
    },
    {
      "inputs": [],
      "name": "symbol",
      "outputs": [
        {
          "internalType": "string",
          "name": "",
          "type": "string"
        }
      ],
      "stateMutability": "view",
      "type": "function"
    },
    {
      "inputs": [
        {
          "internalType": "uint256",
          "name": "",
          "type": "uint256"
        },
        {
          "internalType": "address",
          "name": "",
          "type": "address"
        }
      ],
      "name": "tokenHoldings",
      "outputs": [
        {
          "internalType": "uint256",
          "name": "",
          "type": "uint256"
        }
      ],
      "stateMutability": "view",
      "type": "function"
    },
    {
      "inputs": [],
      "name": "totalSupply",
      "outputs": [
        {
          "internalType": "uint256",
          "name": "",
          "type": "uint256"
        }
      ],
      "stateMutability": "view",
      "type": "function"
    },
    {
      "inputs": [
        {
          "internalType": "address",
          "name": "to",
          "type": "address"
        },
        {
          "internalType": "uint256",
          "name": "amount",
          "type": "uint256"
        }
      ],
      "name": "transfer",
      "outputs": [
        {
          "internalType": "bool",
          "name": "",
          "type": "bool"
        }
      ],
      "stateMutability": "nonpayable",
      "type": "function"
    },
    {
      "inputs": [
        {
          "internalType": "address",
          "name": "from",
          "type": "address"
        },
        {
          "internalType": "address",
          "name": "to",
          "type": "address"
        },
        {
          "internalType": "uint256",
          "name": "amount",
          "type": "uint256"
        }
      ],
      "name": "transferFrom",
      "outputs": [
        {
          "internalType": "bool",
          "name": "",
          "type": "bool"
        }
      ],
      "stateMutability": "nonpayable",
      "type": "function"
    },
    {
      "inputs": [
        {
          "internalType": "address",
          "name": "newOwner",
          "type": "address"
        }
      ],
      "name": "transferOwnership",
      "outputs": [],
      "stateMutability": "nonpayable",
      "type": "function"
    }
  ],
  "bytecode": "0x60806040526001600a553480156200001657600080fd5b506040518060400160405280600a81526020017f4672616374696f6e4669000000000000000000000000000000000000000000008152506040518060400160405280600381526020017f464649000000000000000000000000000000000000000000000000000000000081525081600390816200009491906200041f565b508060049081620000a691906200041f565b505050620000c9620000bd620000d760201b60201c565b620000df60201b60201c565b600160068190555062000506565b600033905090565b6000600560009054906101000a900473ffffffffffffffffffffffffffffffffffffffff16905081600560006101000a81548173ffffffffffffffffffffffffffffffffffffffff021916908373ffffffffffffffffffffffffffffffffffffffff1602179055508173ffffffffffffffffffffffffffffffffffffffff168173ffffffffffffffffffffffffffffffffffffffff167f8be0079c531659141344cd1fd0a4f28419497f9722a3daafe3b4186f6b6457e060405160405180910390a35050565b600081519050919050565b7f4e487b7100000000000000000000000000000000000000000000000000000000600052604160045260246000fd5b7f4e487b7100000000000000000000000000000000000000000000000000000000600052602260045260246000fd5b600060028204905060018216806200022757607f821691505b6020821081036200023d576200023c620001df565b5b50919050565b60008190508160005260206000209050919050565b60006020601f8301049050919050565b600082821b905092915050565b600060088302620002a77fffffffffffffffffffffffffffffffffffffffffffffffffffffffffffffffff8262000268565b620002b3868362000268565b95508019841693508086168417925050509392505050565b6000819050919050565b6000819050919050565b600062000300620002fa620002f484620002cb565b620002d5565b620002cb565b9050919050565b6000819050919050565b6200031c83620002df565b620003346200032b8262000307565b84845462000275565b825550505050565b600090565b6200034b6200033c565b6200035881848462000311565b505050565b5b8181101562000380576200037460008262000341565b6001810190506200035e565b5050565b601f821115620003cf57620003998162000243565b620003a48462000258565b81016020851015620003b4578190505b620003cc620003c38562000258565b8301826200035d565b50505b505050565b600082821c905092915050565b6000620003f460001984600802620003d4565b1980831691505092915050565b60006200040f8383620003e1565b9150826002028217905092915050565b6200042a82620001a5565b67ffffffffffffffff811115620004465762000445620001b0565b5b6200045282546200020e565b6200045f82828562000384565b600060209050601f83116001811462000497576000841562000482578287015190505b6200048e858262000401565b865550620004fe565b601f198416620004a78662000243565b60005b82811015620004d157848901518255600182019150602085019450602081019050620004aa565b86831015620004f15784890151620004ed601f891682620003e1565b8355505b6001600288020188555050505b505050505050565b6132e880620005166000396000f3fe6080604052600436106101665760003560e01c806384ae939c116100d15780639a9697681161008a578063cf35bdd011610064578063cf35bdd014610572578063dd62ed3e146105b4578063eac8f5b8146105f1578063f2fde38b1461062e57610166565b80639a969768146104dc578063a457c2d7146104f8578063a9059cbb1461053557610166565b806384ae939c146103b857806387541ed6146103e15780638da5cb5b1461041e5780638ed91318146104495780639187cb031461047457806395d89b41146104b157610166565b8063395093511161012357806339509351146102915780635a1e9b2f146102ce5780636bcfe5921461030b57806370a0823114610348578063715018a6146103855780637975ce281461039c57610166565b806306fdde031461016b578063095ea7b31461019657806318160ddd146101d357806323b872dd146101fe5780632acada4d1461023b578063313ce56714610266575b600080fd5b34801561017757600080fd5b50610180610657565b60405161018d9190611d55565b60405180910390f35b3480156101a257600080fd5b506101bd60048036038101906101b89190611e1f565b6106e9565b6040516101ca9190611e7a565b60405180910390f35b3480156101df57600080fd5b506101e861070c565b6040516101f59190611ea4565b60405180910390f35b34801561020a57600080fd5b5061022560048036038101906102209190611ebf565b610716565b6040516102329190611e7a565b60405180910390f35b34801561024757600080fd5b50610250610745565b60405161025d91906120cc565b60405180910390f35b34801561027257600080fd5b5061027b610986565b604051610288919061210a565b60405180910390f35b34801561029d57600080fd5b506102b860048036038101906102b39190611e1f565b61098f565b6040516102c59190611e7a565b60405180910390f35b3480156102da57600080fd5b506102f560048036038101906102f09190612125565b6109c6565b6040516103029190611ea4565b60405180910390f35b34801561031757600080fd5b50610332600480360381019061032d9190612125565b6109eb565b60405161033f9190611ea4565b60405180910390f35b34801561035457600080fd5b5061036f600480360381019061036a9190612165565b610a46565b60405161037c9190611ea4565b60405180910390f35b34801561039157600080fd5b5061039a610a8e565b005b6103b660048036038101906103b19190612192565b610aa2565b005b3480156103c457600080fd5b506103df60048036038101906103da9190612307565b610cd9565b005b3480156103ed57600080fd5b50610408600480360381019061040391906123a6565b610eb5565b6040516104159190611ea4565b60405180910390f35b34801561042a57600080fd5b50610433610ed9565b60405161044091906123e2565b60405180910390f35b34801561045557600080fd5b5061045e610f03565b60405161046b9190611ea4565b60405180910390f35b34801561048057600080fd5b5061049b600480360381019061049691906123a6565b610f09565b6040516104a89190611ea4565b60405180910390f35b3480156104bd57600080fd5b506104c6610f3a565b6040516104d39190611d55565b60405180910390f35b6104f660048036038101906104f191906123a6565b610fcc565b005b34801561050457600080fd5b5061051f600480360381019061051a9190611e1f565b61118c565b60405161052c9190611e7a565b60405180910390f35b34801561054157600080fd5b5061055c60048036038101906105579190611e1f565b611203565b6040516105699190611e7a565b60405180910390f35b34801561057e57600080fd5b50610599600480360381019061059491906123a6565b611226565b6040516105ab969594939291906123fd565b60405180910390f35b3480156105c057600080fd5b506105db60048036038101906105d6919061246c565b61137f565b6040516105e89190611ea4565b60405180910390f35b3480156105fd57600080fd5b50610618600480360381019061061391906123a6565b611406565b604051610625919061253c565b60405180910390f35b34801561063a57600080fd5b5061065560048036038101906106509190612165565b611590565b005b6060600380546106669061258d565b80601f01602080910402602001604051908101604052809291908181526020018280546106929061258d565b80156106df5780601f106106b4576101008083540402835291602001916106df565b820191906000526020600020905b8154815290600101906020018083116106c257829003601f168201915b5050505050905090565b6000806106f4611613565b905061070181858561161b565b600191505092915050565b6000600254905090565b600080610721611613565b905061072e8582856117e4565b610739858585611870565b60019150509392505050565b6060600060098054905067ffffffffffffffff811115610768576107676121dc565b5b6040519080825280602002602001820160405280156107a157816020015b61078e611c8d565b8152602001906001900390816107865790505b50905060005b60098054905081101561097e5760076000600983815481106107cc576107cb6125be565b5b906000526020600020015481526020019081526020016000206040518060c00160405290816000820180546108009061258d565b80601f016020809104026020016040519081016040528092919081815260200182805461082c9061258d565b80156108795780601f1061084e57610100808354040283529160200191610879565b820191906000526020600020905b81548152906001019060200180831161085c57829003601f168201915b505050505081526020016001820180546108929061258d565b80601f01602080910402602001604051908101604052809291908181526020018280546108be9061258d565b801561090b5780601f106108e05761010080835404028352916020019161090b565b820191906000526020600020905b8154815290600101906020018083116108ee57829003601f168201915b505050505081526020016002820154815260200160038201548152602001600482015481526020016005820160009054906101000a900460ff1615151515815250508282815181106109605761095f6125be565b5b602002602001018190525080806109769061261c565b9150506107a7565b508091505090565b60006012905090565b60008061099a611613565b90506109bb8185856109ac858961137f565b6109b69190612664565b61161b565b600191505092915050565b6008602052816000526040600020602052806000526040600020600091509150505481565b60006008600084815260200190815260200160002060008373ffffffffffffffffffffffffffffffffffffffff1673ffffffffffffffffffffffffffffffffffffffff16815260200190815260200160002054905092915050565b60008060008373ffffffffffffffffffffffffffffffffffffffff1673ffffffffffffffffffffffffffffffffffffffff168152602001908152602001600020549050919050565b610a96611ae6565b610aa06000611b64565b565b610aaa611c2a565b6007600083815260200190815260200160002060050160009054906101000a900460ff16610b0d576040517f08c379a0000000000000000000000000000000000000000000000000000000008152600401610b04906126e4565b60405180910390fd5b60008111610b50576040517f08c379a0000000000000000000000000000000000000000000000000000000008152600401610b4790612750565b60405180910390fd5b6000816007600085815260200190815260200160002060040154610b749190612770565b905080341015610bb9576040517f08c379a0000000000000000000000000000000000000000000000000000000008152600401610bb0906127fe565b60405180910390fd5b816008600085815260200190815260200160002060003373ffffffffffffffffffffffffffffffffffffffff1673ffffffffffffffffffffffffffffffffffffffff1681526020019081526020016000206000828254610c199190612664565b925050819055503373ffffffffffffffffffffffffffffffffffffffff16837fe8d7e55108ae7ddb60173461d2950c7a8e22a7ac7f442825564fe84c8c6f9a388484604051610c6992919061281e565b60405180910390a380341115610ccc573373ffffffffffffffffffffffffffffffffffffffff166108fc8234610c9f9190612847565b9081150290604051600060405180830381858888f19350505050158015610cca573d6000803e3d6000fd5b505b50610cd5611c79565b5050565b610ce1611ae6565b60008211610d24576040517f08c379a0000000000000000000000000000000000000000000000000000000008152600401610d1b906128ed565b60405180910390fd5b60008111610d67576040517f08c379a0000000000000000000000000000000000000000000000000000000008152600401610d5e9061297f565b60405180910390fd5b60008183610d7591906129ce565b90506040518060c001604052808681526020018581526020018481526020018381526020018281526020016001151581525060076000600a5481526020019081526020016000206000820151816000019081610dd19190612bab565b506020820151816001019081610de79190612bab565b5060408201518160020155606082015181600301556080820151816004015560a08201518160050160006101000a81548160ff0219169083151502179055509050506009600a549080600181540180825580915050600190039060005260206000200160009091909190915055600a547fb9d6fc5c63c8baacbb0dec9379ac7871f1a749dc46cb11bae81247e10dea64648686868686604051610e8e959493929190612c7d565b60405180910390a2600a6000815480929190610ea99061261c565b91905055505050505050565b60098181548110610ec557600080fd5b906000526020600020016000915090505481565b6000600560009054906101000a900473ffffffffffffffffffffffffffffffffffffffff16905090565b600a5481565b60008060009050806007600085815260200190815260200160002060030154610f329190612847565b915050919050565b606060048054610f499061258d565b80601f0160208091040260200160405190810160405280929190818152602001828054610f759061258d565b8015610fc25780601f10610f9757610100808354040283529160200191610fc2565b820191906000526020600020905b815481529060010190602001808311610fa557829003601f168201915b5050505050905090565b610fd4611ae6565b610fdc611c2a565b6007600082815260200190815260200160002060050160009054906101000a900460ff1661103f576040517f08c379a0000000000000000000000000000000000000000000000000000000008152600401611036906126e4565b60405180910390fd5b60003411611082576040517f08c379a000000000000000000000000000000000000000000000000000000000815260040161107990612d50565b60405180910390fd5b600060076000838152602001908152602001600020600301549050600081116110e0576040517f08c379a00000000000000000000000000000000000000000000000000000000081526004016110d79061297f565b60405180910390fd5b600081346110ee91906129ce565b905060005b60098054905081101561114457600060098281548110611116576111156125be565b5b906000526020600020015490508481036111305750611144565b50808061113c9061261c565b9150506110f3565b50827f35a0431ae8ac3e583720a9e25576a99b5b4bb2cb375a867047eef1e6ea81b26f348460405161117792919061281e565b60405180910390a25050611189611c79565b50565b600080611197611613565b905060006111a5828661137f565b9050838110156111ea576040517f08c379a00000000000000000000000000000000000000000000000000000000081526004016111e190612de2565b60405180910390fd5b6111f7828686840361161b565b60019250505092915050565b60008061120e611613565b905061121b818585611870565b600191505092915050565b60076020528060005260406000206000915090508060000180546112499061258d565b80601f01602080910402602001604051908101604052809291908181526020018280546112759061258d565b80156112c25780601f10611297576101008083540402835291602001916112c2565b820191906000526020600020905b8154815290600101906020018083116112a557829003601f168201915b5050505050908060010180546112d79061258d565b80601f01602080910402602001604051908101604052809291908181526020018280546113039061258d565b80156113505780601f1061132557610100808354040283529160200191611350565b820191906000526020600020905b81548152906001019060200180831161133357829003601f168201915b5050505050908060020154908060030154908060040154908060050160009054906101000a900460ff16905086565b6000600160008473ffffffffffffffffffffffffffffffffffffffff1673ffffffffffffffffffffffffffffffffffffffff16815260200190815260200160002060008373ffffffffffffffffffffffffffffffffffffffff1673ffffffffffffffffffffffffffffffffffffffff16815260200190815260200160002054905092915050565b61140e611c8d565b600760008381526020019081526020016000206040518060c001604052908160008201805461143c9061258d565b80601f01602080910402602001604051908101604052809291908181526020018280546114689061258d565b80156114b55780601f1061148a576101008083540402835291602001916114b5565b820191906000526020600020905b81548152906001019060200180831161149857829003601f168201915b505050505081526020016001820180546114ce9061258d565b80601f01602080910402602001604051908101604052809291908181526020018280546114fa9061258d565b80156115475780601f1061151c57610100808354040283529160200191611547565b820191906000526020600020905b81548152906001019060200180831161152a57829003601f168201915b505050505081526020016002820154815260200160038201548152602001600482015481526020016005820160009054906101000a900460ff1615151515815250509050919050565b611598611ae6565b600073ffffffffffffffffffffffffffffffffffffffff168173ffffffffffffffffffffffffffffffffffffffff1603611607576040517f08c379a00000000000000000000000000000000000000000000000000000000081526004016115fe90612e74565b60405180910390fd5b61161081611b64565b50565b600033905090565b600073ffffffffffffffffffffffffffffffffffffffff168373ffffffffffffffffffffffffffffffffffffffff160361168a576040517f08c379a000000000000000000000000000000000000000000000000000000000815260040161168190612f06565b60405180910390fd5b600073ffffffffffffffffffffffffffffffffffffffff168273ffffffffffffffffffffffffffffffffffffffff16036116f9576040517f08c379a00000000000000000000000000000000000000000000000000000000081526004016116f090612f98565b60405180910390fd5b80600160008573ffffffffffffffffffffffffffffffffffffffff1673ffffffffffffffffffffffffffffffffffffffff16815260200190815260200160002060008473ffffffffffffffffffffffffffffffffffffffff1673ffffffffffffffffffffffffffffffffffffffff168152602001908152602001600020819055508173ffffffffffffffffffffffffffffffffffffffff168373ffffffffffffffffffffffffffffffffffffffff167f8c5be1e5ebec7d5bd14f71427d1e84f3dd0314c0f7b2291e5b200ac8c7c3b925836040516117d79190611ea4565b60405180910390a3505050565b60006117f0848461137f565b90507fffffffffffffffffffffffffffffffffffffffffffffffffffffffffffffffff811461186a578181101561185c576040517f08c379a000000000000000000000000000000000000000000000000000000000815260040161185390613004565b60405180910390fd5b611869848484840361161b565b5b50505050565b600073ffffffffffffffffffffffffffffffffffffffff168373ffffffffffffffffffffffffffffffffffffffff16036118df576040517f08c379a00000000000000000000000000000000000000000000000000000000081526004016118d690613096565b60405180910390fd5b600073ffffffffffffffffffffffffffffffffffffffff168273ffffffffffffffffffffffffffffffffffffffff160361194e576040517f08c379a000000000000000000000000000000000000000000000000000000000815260040161194590613128565b60405180910390fd5b611959838383611c83565b60008060008573ffffffffffffffffffffffffffffffffffffffff1673ffffffffffffffffffffffffffffffffffffffff168152602001908152602001600020549050818110156119df576040517f08c379a00000000000000000000000000000000000000000000000000000000081526004016119d6906131ba565b60405180910390fd5b8181036000808673ffffffffffffffffffffffffffffffffffffffff1673ffffffffffffffffffffffffffffffffffffffff16815260200190815260200160002081905550816000808573ffffffffffffffffffffffffffffffffffffffff1673ffffffffffffffffffffffffffffffffffffffff168152602001908152602001600020600082825401925050819055508273ffffffffffffffffffffffffffffffffffffffff168473ffffffffffffffffffffffffffffffffffffffff167fddf252ad1be2c89b69c2b068fc378daa952ba7f163c4a11628f55a4df523b3ef84604051611acd9190611ea4565b60405180910390a3611ae0848484611c88565b50505050565b611aee611613565b73ffffffffffffffffffffffffffffffffffffffff16611b0c610ed9565b73ffffffffffffffffffffffffffffffffffffffff1614611b62576040517f08c379a0000000000000000000000000000000000000000000000000000000008152600401611b5990613226565b60405180910390fd5b565b6000600560009054906101000a900473ffffffffffffffffffffffffffffffffffffffff16905081600560006101000a81548173ffffffffffffffffffffffffffffffffffffffff021916908373ffffffffffffffffffffffffffffffffffffffff1602179055508173ffffffffffffffffffffffffffffffffffffffff168173ffffffffffffffffffffffffffffffffffffffff167f8be0079c531659141344cd1fd0a4f28419497f9722a3daafe3b4186f6b6457e060405160405180910390a35050565b600260065403611c6f576040517f08c379a0000000000000000000000000000000000000000000000000000000008152600401611c6690613292565b60405180910390fd5b6002600681905550565b6001600681905550565b505050565b505050565b6040518060c0016040528060608152602001606081526020016000815260200160008152602001600081526020016000151581525090565b600081519050919050565b600082825260208201905092915050565b60005b83811015611cff578082015181840152602081019050611ce4565b60008484015250505050565b6000601f19601f8301169050919050565b6000611d2782611cc5565b611d318185611cd0565b9350611d41818560208601611ce1565b611d4a81611d0b565b840191505092915050565b60006020820190508181036000830152611d6f8184611d1c565b905092915050565b6000604051905090565b600080fd5b600080fd5b600073ffffffffffffffffffffffffffffffffffffffff82169050919050565b6000611db682611d8b565b9050919050565b611dc681611dab565b8114611dd157600080fd5b50565b600081359050611de381611dbd565b92915050565b6000819050919050565b611dfc81611de9565b8114611e0757600080fd5b50565b600081359050611e1981611df3565b92915050565b60008060408385031215611e3657611e35611d81565b5b6000611e4485828601611dd4565b9250506020611e5585828601611e0a565b9150509250929050565b60008115159050919050565b611e7481611e5f565b82525050565b6000602082019050611e8f6000830184611e6b565b92915050565b611e9e81611de9565b82525050565b6000602082019050611eb96000830184611e95565b92915050565b600080600060608486031215611ed857611ed7611d81565b5b6000611ee686828701611dd4565b9350506020611ef786828701611dd4565b9250506040611f0886828701611e0a565b9150509250925092565b600081519050919050565b600082825260208201905092915050565b6000819050602082019050919050565b600082825260208201905092915050565b6000611f5a82611cc5565b611f648185611f3e565b9350611f74818560208601611ce1565b611f7d81611d0b565b840191505092915050565b611f9181611de9565b82525050565b611fa081611e5f565b82525050565b600060c0830160008301518482036000860152611fc38282611f4f565b91505060208301518482036020860152611fdd8282611f4f565b9150506040830151611ff26040860182611f88565b5060608301516120056060860182611f88565b5060808301516120186080860182611f88565b5060a083015161202b60a0860182611f97565b508091505092915050565b60006120428383611fa6565b905092915050565b6000602082019050919050565b600061206282611f12565b61206c8185611f1d565b93508360208202850161207e85611f2e565b8060005b858110156120ba578484038952815161209b8582612036565b94506120a68361204a565b925060208a01995050600181019050612082565b50829750879550505050505092915050565b600060208201905081810360008301526120e68184612057565b905092915050565b600060ff82169050919050565b612104816120ee565b82525050565b600060208201905061211f60008301846120fb565b92915050565b6000806040838503121561213c5761213b611d81565b5b600061214a85828601611e0a565b925050602061215b85828601611dd4565b9150509250929050565b60006020828403121561217b5761217a611d81565b5b600061218984828501611dd4565b91505092915050565b600080604083850312156121a9576121a8611d81565b5b60006121b785828601611e0a565b92505060206121c885828601611e0a565b9150509250929050565b600080fd5b600080fd5b7f4e487b7100000000000000000000000000000000000000000000000000000000600052604160045260246000fd5b61221482611d0b565b810181811067ffffffffffffffff82111715612233576122326121dc565b5b80604052505050565b6000612246611d77565b9050612252828261220b565b919050565b600067ffffffffffffffff821115612272576122716121dc565b5b61227b82611d0b565b9050602081019050919050565b82818337600083830152505050565b60006122aa6122a584612257565b61223c565b9050828152602081018484840111156122c6576122c56121d7565b5b6122d1848285612288565b509392505050565b600082601f8301126122ee576122ed6121d2565b5b81356122fe848260208601612297565b91505092915050565b6000806000806080858703121561232157612320611d81565b5b600085013567ffffffffffffffff81111561233f5761233e611d86565b5b61234b878288016122d9565b945050602085013567ffffffffffffffff81111561236c5761236b611d86565b5b612378878288016122d9565b935050604061238987828801611e0a565b925050606061239a87828801611e0a565b91505092959194509250565b6000602082840312156123bc576123bb611d81565b5b60006123ca84828501611e0a565b91505092915050565b6123dc81611dab565b82525050565b60006020820190506123f760008301846123d3565b92915050565b600060c08201905081810360008301526124178189611d1c565b9050818103602083015261242b8188611d1c565b905061243a6040830187611e95565b6124476060830186611e95565b6124546080830185611e95565b61246160a0830184611e6b565b979650505050505050565b6000806040838503121561248357612482611d81565b5b600061249185828601611dd4565b92505060206124a285828601611dd4565b9150509250929050565b600060c08301600083015184820360008601526124c98282611f4f565b915050602083015184820360208601526124e38282611f4f565b91505060408301516124f86040860182611f88565b50606083015161250b6060860182611f88565b50608083015161251e6080860182611f88565b5060a083015161253160a0860182611f97565b508091505092915050565b6000602082019050818103600083015261255681846124ac565b905092915050565b7f4e487b7100000000000000000000000000000000000000000000000000000000600052602260045260246000fd5b600060028204905060018216806125a557607f821691505b6020821081036125b8576125b761255e565b5b50919050565b7f4e487b7100000000000000000000000000000000000000000000000000000000600052603260045260246000fd5b7f4e487b7100000000000000000000000000000000000000000000000000000000600052601160045260246000fd5b600061262782611de9565b91507fffffffffffffffffffffffffffffffffffffffffffffffffffffffffffffffff8203612659576126586125ed565b5b600182019050919050565b600061266f82611de9565b915061267a83611de9565b9250828201905080821115612692576126916125ed565b5b92915050565b7f4173736574206973206e6f742061637469766500000000000000000000000000600082015250565b60006126ce601383611cd0565b91506126d982612698565b602082019050919050565b600060208201905081810360008301526126fd816126c1565b9050919050565b7f416d6f756e74206d7573742062652067726561746572207468616e2030000000600082015250565b600061273a601d83611cd0565b915061274582612704565b602082019050919050565b600060208201905081810360008301526127698161272d565b9050919050565b600061277b82611de9565b915061278683611de9565b925082820261279481611de9565b915082820484148315176127ab576127aa6125ed565b5b5092915050565b7f496e73756666696369656e74207061796d656e74000000000000000000000000600082015250565b60006127e8601483611cd0565b91506127f3826127b2565b602082019050919050565b60006020820190508181036000830152612817816127db565b9050919050565b60006040820190506128336000830185611e95565b6128406020830184611e95565b9392505050565b600061285282611de9565b915061285d83611de9565b9250828203905081811115612875576128746125ed565b5b92915050565b7f546f74616c2076616c7565206d7573742062652067726561746572207468616e60008201527f2030000000000000000000000000000000000000000000000000000000000000602082015250565b60006128d7602283611cd0565b91506128e28261287b565b604082019050919050565b60006020820190508181036000830152612906816128ca565b9050919050565b7f546f74616c20737570706c79206d75737420626520677265617465722074686160008201527f6e20300000000000000000000000000000000000000000000000000000000000602082015250565b6000612969602383611cd0565b91506129748261290d565b604082019050919050565b600060208201905081810360008301526129988161295c565b9050919050565b7f4e487b7100000000000000000000000000000000000000000000000000000000600052601260045260246000fd5b60006129d982611de9565b91506129e483611de9565b9250826129f4576129f361299f565b5b828204905092915050565b60008190508160005260206000209050919050565b60006020601f8301049050919050565b600082821b905092915050565b600060088302612a617fffffffffffffffffffffffffffffffffffffffffffffffffffffffffffffffff82612a24565b612a6b8683612a24565b95508019841693508086168417925050509392505050565b6000819050919050565b6000612aa8612aa3612a9e84611de9565b612a83565b611de9565b9050919050565b6000819050919050565b612ac283612a8d565b612ad6612ace82612aaf565b848454612a31565b825550505050565b600090565b612aeb612ade565b612af6818484612ab9565b505050565b5b81811015612b1a57612b0f600082612ae3565b600181019050612afc565b5050565b601f821115612b5f57612b30816129ff565b612b3984612a14565b81016020851015612b48578190505b612b5c612b5485612a14565b830182612afb565b50505b505050565b600082821c905092915050565b6000612b8260001984600802612b64565b1980831691505092915050565b6000612b9b8383612b71565b9150826002028217905092915050565b612bb482611cc5565b67ffffffffffffffff811115612bcd57612bcc6121dc565b5b612bd7825461258d565b612be2828285612b1e565b600060209050601f831160018114612c155760008415612c03578287015190505b612c0d8582612b8f565b865550612c75565b601f198416612c23866129ff565b60005b82811015612c4b57848901518255600182019150602085019450602081019050612c26565b86831015612c685784890151612c64601f891682612b71565b8355505b6001600288020188555050505b505050505050565b600060a0820190508181036000830152612c978188611d1c565b90508181036020830152612cab8187611d1c565b9050612cba6040830186611e95565b612cc76060830185611e95565b612cd46080830184611e95565b9695505050505050565b7f50726f66697420616d6f756e74206d757374206265206772656174657220746860008201527f616e203000000000000000000000000000000000000000000000000000000000602082015250565b6000612d3a602483611cd0565b9150612d4582612cde565b604082019050919050565b60006020820190508181036000830152612d6981612d2d565b9050919050565b7f45524332303a2064656372656173656420616c6c6f77616e63652062656c6f7760008201527f207a65726f000000000000000000000000000000000000000000000000000000602082015250565b6000612dcc602583611cd0565b9150612dd782612d70565b604082019050919050565b60006020820190508181036000830152612dfb81612dbf565b9050919050565b7f4f776e61626c653a206e6577206f776e657220697320746865207a65726f206160008201527f6464726573730000000000000000000000000000000000000000000000000000602082015250565b6000612e5e602683611cd0565b9150612e6982612e02565b604082019050919050565b60006020820190508181036000830152612e8d81612e51565b9050919050565b7f45524332303a20617070726f76652066726f6d20746865207a65726f2061646460008201527f7265737300000000000000000000000000000000000000000000000000000000602082015250565b6000612ef0602483611cd0565b9150612efb82612e94565b604082019050919050565b60006020820190508181036000830152612f1f81612ee3565b9050919050565b7f45524332303a20617070726f766520746f20746865207a65726f20616464726560008201527f7373000000000000000000000000000000000000000000000000000000000000602082015250565b6000612f82602283611cd0565b9150612f8d82612f26565b604082019050919050565b60006020820190508181036000830152612fb181612f75565b9050919050565b7f45524332303a20696e73756666696369656e7420616c6c6f77616e6365000000600082015250565b6000612fee601d83611cd0565b9150612ff982612fb8565b602082019050919050565b6000602082019050818103600083015261301d81612fe1565b9050919050565b7f45524332303a207472616e736665722066726f6d20746865207a65726f20616460008201527f6472657373000000000000000000000000000000000000000000000000000000602082015250565b6000613080602583611cd0565b915061308b82613024565b604082019050919050565b600060208201905081810360008301526130af81613073565b9050919050565b7f45524332303a207472616e7366657220746f20746865207a65726f206164647260008201527f6573730000000000000000000000000000000000000000000000000000000000602082015250565b6000613112602383611cd0565b915061311d826130b6565b604082019050919050565b6000602082019050818103600083015261314181613105565b9050919050565b7f45524332303a207472616e7366657220616d6f756e742065786365656473206260008201527f616c616e63650000000000000000000000000000000000000000000000000000602082015250565b60006131a4602683611cd0565b91506131af82613148565b604082019050919050565b600060208201905081810360008301526131d381613197565b9050919050565b7f4f776e61626c653a2063616c6c6572206973206e6f7420746865206f776e6572600082015250565b6000613210602083611cd0565b915061321b826131da565b602082019050919050565b6000602082019050818103600083015261323f81613203565b9050919050565b7f5265656e7472616e637947756172643a207265656e7472616e742063616c6c00600082015250565b600061327c601f83611cd0565b915061328782613246565b602082019050919050565b600060208201905081810360008301526132ab8161326f565b905091905056fea26469706673582212206e378b1e94f70575a2ade2471c84d4131a6388884e7b2bd7821b9bdabe2108bb64736f6c63430008130033",
  "linkReferences": {},
  "deployedLinkReferences": {}
}